:100000000C94A1000C94C9000C94C9000C94C90074
:100010000C94C9000C94C9000C94C9000C94C9003C
:100020000C94C9000C94C9000C94C9000C94C9002C
:100030000C94C9000C94C9000C94C9000C94C9001C
:100040000C94EC080C94C9000C945C090C943609CF
:100050000C94C9000C94C9000C94C9000C94C900FC
:100060000C948E090C94C9006E067B0688069706D0
:10007000A406B106BE06CB0607634236B79BD8A7D7
:100080001A39685618AEBAAB558C1D3CB7CC5763BD
:10009000BD6DEDFD753EF6177231BF000000803F6B
:1000A00008000000BE922449123EABAAAA2ABECD87
:1000B000CCCC4C3E00000080BEABAAAAAA3E0000F9
:1000C0000000BF000000803F0000000000084178F1
:1000D000D3BB4387D1133D190E3CC3BD4282AD2B28
:1000E0003E68EC8276BED98FE1A93E4C80EFFFBE20
:1000F00001C4FF7F3F000000000000000000250059
:1001000028002B0004040404040404040202020274
:1001100002020303030303030102040810204080CA
:100120000102040810200102040810200000000849
:1001300000020100000304070000000000000000AE
:10014000BC0A11241FBECFEFD8E0DEBFCDBF12E046
:10015000A0E0B1E0EAEBF7E202C005900D92A6360E
:10016000B107D9F723E0A6E6B2E001C01D92AC3F8B
:10017000B207E1F710E0C1EAD0E004C02197FE0128
:100180000E94F210C03AD107C9F70E94F50A0C94F8
:10019000DB130C9400003091FB02313208F04BC0AD
:1001A0008091D8028111FCCF9091A50322E0209389
:1001B000D80221E02093D7022FEF2093D60210928D
:1001C000D5023093D402EBEDF2E0A4EBB2E020E0F4
:1001D000321721F041914D932F5FFACF1092B30265
:1001E0002091B302990F922B9093B3029091B20297
:1001F000913061F41092B2029091B3029093BB00DF
:100200009091BC0093FDF8CF95EC01C095EE9093D2
:10021000BC009091D8029230E1F39091D6029F3FBA
:1002200079F08091D602803241F08091D6028033FD
:1002300031F084E005C081E003C082E001C083E0CA
:100240001092DA021092FB021092D9020895909156
:10025000D8029111FCCF91E09093D8029093D702ED
:100260002FEF2093D6021092D502260F2093D402AE
:100270009093B3029091B302880F892B8093B302BD
:100280008091B202813061F41092B2028091B30287
:100290008093BB008091BC0083FDF8CF85EC01C04A
:1002A00085EE8093BC008091D8028130E1F380918B
:1002B000D502861710F46091D502A4EBB2E0E2E912
:1002C000F2E080E0861721F09D9191938F5FFACF45
:1002D0000895BF92CF92DF92EF92FF920F931F93F8
:1002E000CF93DF93CDB7DEB72A970FB6F894DEBF72
:1002F0000FBECDBF182FBB24B394CE0101966C0165
:1003000080918402B092D9028093A5031092DA0200
:100310001092FB02612F89E993E00E9492080E94EB
:10032000CB0062E0809184020E942701082F109286
:10033000670280936602760180916702081741F098
:1003400089E993E00E944908F70181937F01F4CF86
:10035000CE14DF04A9F2898190E0982F88272A81A2
:10036000820F911D123081F01330D1F0113019F548
:10037000009729F090937F0280937E021CC08091A9
:100380007E0290917F0217C0009729F0909381021E
:100390008093800210C080918002909181020BC0F6
:1003A000009729F0909383028093820204C0809189
:1003B0008202909183022A960FB6F894DEBF0FBE98
:1003C000CDBFDF91CF911F910F91FF90EF90DF9004
:1003D000CF90BF900895009769F0FC010190002034
:1003E000E9F73197AF01481B590BBC018CEF92E044
:1003F0000C94FB0680E090E00895CF93DF93EB012F
:1004000091E09093D9028093A5031092DA021092A2
:10041000FB02688189E993E00E949208698189E979
:1004200093E00E949208DF91CF910C94CB009F92B1
:10043000AF92BF92CF92DF92EF92FF920F931F93F2
:10044000CF93DF93CDB7DEB72A970FB6F894DEBF10
:100450000FBECDBF6C01A62E99249394CE010196B8
:100460007C01F60180819092D9028093A5031092BD
:10047000DA021092FB0266E089E993E00E9492089A
:100480006A2D89E993E00E9492080E94CB0062E005
:10049000F60180810E942701B82E10926702809396
:1004A0006602870180916702B81641F089E993E0FE
:1004B0000E944908F80181938F01F4CFE016F106FC
:1004C00081F2898190E0982F88272A81820F911DDF
:1004D0002A960FB6F894DEBF0FBECDBFDF91CF9145
:1004E0001F910F91FF90EF90DF90CF90BF90AF9052
:1004F0009F9008959091840221E02093D9029093D7
:10050000A5031092DA021092FB02682F89E993E0AA
:100510000E9492080C94CB00CF93DF930E94EB01D2
:10052000EC0184E291E00E94EB018C0F9D1FDF91B2
:10053000CF91089590E0FC01E45DFE4F2491FC0111
:10054000E85EFE4F3491FC01EC5FFE4FE491EE2338
:10055000B1F1222339F1233091F038F42130A9F0A0
:10056000223001F584B58F7D12C0273091F02830FC
:10057000A1F02430B9F4809180008F7D03C0809178
:1005800080008F77809380000DC084B58F7784BD05
:1005900009C08091B0008F7703C08091B0008F7D3B
:1005A0008093B000F0E0EE0FFF1FE650FF4FA591E3
:1005B000B4918FB7F894EC91E32BEC938FBF08952F
:1005C0000C94EB012F923F924F925F926F927F9229
:1005D0008F929F92AF92BF92CF92DF92EF92FF9253
:1005E0000F931F93CF93DF93CDB7DEB7A4970FB6CA
:1005F000F894DEBF0FBECDBF4B015C01F42E9B0112
:10060000AC010E94960F882319F087E291E027C081
:1006100024013501E89477F82FEF3FEF4FE75FE7CC
:10062000C301B2010E94960F81110DC02FEF3FEF61
:100630004FE75FE7C301B2010E947C0D18161CF45E
:100640008BE291E00CC02FEF3FEF4FE75FE4C50175
:10065000B4010E94D40E18162CF48FE291E00E948F
:10066000EB01B8C02FEF3FEF4FE75FECC501B401DE
:100670000E947C0D87FDF1CF20E030E0A901C5018B
:10068000B4010E947C0D87FF0BC06DE28CEF92E0FD
:100690000E948E073C01B7FAB094B7F8B09402C03C
:1006A000612C712C10E060E070E080E09FE3F116B7
:1006B00041F020E030E040E251E40E94810D1F5FF4
:1006C000F6CFA50194010E94100D4B015C010E9420
:1006D000F30D6AA3C72ED82EE92E19A2262F372F85
:1006E000482F592F8E010F5D1F4F0BA31CA39AE0BB
:1006F000292E312C412C512CCA01B901A2019101A2
:100700000E94D010605DF80162938F0121153105C0
:100710004105510589F7CF010E94EB018301080FC4
:10072000191FFF2009F455C06AA17C2D8D2D9E2D27
:100730000E94220E9B01AC01C501B4010E940F0D65
:100740004B015C016EE28CEF92E00E948E07080F75
:10075000191F8AE0282E312C412C512C20E030E04A
:1007600040E251E4C501B4010E94D90E4B015C0185
:100770000E94F30D9B0140E050E019A2CBA0DCA049
:10078000762E3AA3642EE52ECA01B901A201910189
:100790000E94D010605DF60162936F012115310552
:1007A0004105510589F7CF010E94EB01080F191F80
:1007B000672D7AA1862D9E2D0E94220E9B01AC01F1
:1007C000C501B4010E940F0D4B015C01FA94F110B8
:1007D000C5CFC801A4960FB6F894DEBF0FBECDBF3B
:1007E000DF91CF911F910F91FF90EF90DF90CF900D
:1007F000BF90AF909F908F907F906F905F904F9041
:100800003F902F9008958F929F92AF92BF92CF9278
:10081000DF92EF92FF926B017C010E94C7084B01AF
:100820005C01C114D104E104F104F1F00E94C70895
:10083000DC01CB0188199909AA09BB09883E9340BC
:10084000A105B10570F321E0C21AD108E108F10851
:1008500088EE880E83E0981EA11CB11CC114D1043F
:10086000E104F10419F7DDCFFF90EF90DF90CF9016
:10087000BF90AF909F908F900895FF920F931F931A
:10088000CF93DF930E947A0262E070E080E090E014
:100890000E94030464E0809184020E942701109268
:1008A00067028093660281110BC0C6E6D0E02197F3
:1008B00039F162E070E080E090E00E940304F7CF3D
:1008C000843009F589E993E00E944908182F89E9E5
:1008D00093E00E944908F82E89E993E00E944908B4
:1008E000082F89E993E00E9449081F0D100F181383
:1008F0000DC0DF2D80E0C82FCE01800F911D08C0F4
:100900008EEF9FEF05C08DEF9FEF02C08CEF9FEF42
:10091000DF91CF911F910F91FF9008952F923F92F9
:100920004F925F926F927F928F929F92AF92BF92FF
:10093000CF92DF92EF92FF920F931F93CF93DF93AB
:10094000CDB7DEB72E970FB6F894DEBF0FBECDBF82
:100950009E878D8780916802909169028130910510
:1009600009F089C080919102811125C081E10E9426
:100970003D0418161906CCF49093860280938502E4
:1009800082E10E943D04181619067CF490938802B7
:100990008093870283E10E943D04181619062CF407
:1009A00090938A028093890203C0892B09F084C145
:1009B00081E08093910281E00E943D0497FD83C114
:1009C00090938C0280938B0282E00E943D0497FDFD
:1009D0007AC190938E0280938D0283E00E943D0441
:1009E0003C0197FD70C19093900280938F026091BB
:1009F0008B0270918C0280E090E00E94220E6B01CD
:100A00007C01609185027091860280E090E00E94F6
:100A1000220E9B01AC01C701B6010E94810D6B0142
:100A20007C0160918D0270918E0280E090E00E94C6
:100A3000220E4B015C01609187027091880280E078
:100A400090E00E94220E9B01AC01C501B4010E94FE
:100A5000810D4B015C01B30180E090E00E94220E09
:100A60002B013C016091890270918A0280E090E044
:100A70000E94220EE1C0029709F003C18AE0809330
:100A80006A0281E080936B026AE672E080918402E0
:100A90000E94FD0168E084E892E00E9417025C0178
:100AA0006AE084E892E00E9417021C016CE084E88E
:100AB00092E00E9417029E838D8381E00E9469016B
:100AC0007C0182E00E9469018C0183E00E9469013F
:100AD0009A838983B701FF0C880B990B0E94240E1F
:100AE0006B017C01B501BB0C880B990B0E94240E95
:100AF0004B015C019B01AC01C701B6010E94810D55
:100B00002B013C01A501940160E070EC8FE794E4B7
:100B10000E940F0D9B01AC01C301B2010E94D90ECE
:100B20004B015C01A701960160E070EC8FE794E453
:100B30000E940F0D9B01AC01C501B4010E94810D03
:100B40006B017C01B801110F880B990B0E94240ED8
:100B50002B013C01B101330C880B990B0E94240E30
:100B60004B015C019B01AC01C301B2010E94810DEC
:100B700069877A878B879C87A501940160E070EC78
:100B80008FE794E40E940F0D9B01AC0169857A8583
:100B90008B859C850E94D90E4B015C01A3019201BB
:100BA00060E070EC8FE794E40E940F0D9B01AC01B4
:100BB000C501B4010E94810D4B015C0129813A817C
:100BC000B901330F880B990B0E94240E69837A8335
:100BD0008B839C832D813E81B901330F880B990B48
:100BE0000E94240E2B013C019B01AC0169817A819A
:100BF0008B819C810E94810D6D837E838F8398877A
:100C0000A301920160E070EC8FE794E40E940F0D65
:100C10009B01AC016D817E818F8198850E94D90EE8
:100C20002B013C0129813A814B815C8160E070ECB1
:100C30008FE794E40E940F0D9B01AC01C301B20148
:100C40000E94810D2B013C018D859E858830910588
:100C500010F4FC013FC000E010E01D821982809179
:100C60006802909169020297A9F48AE080936A026F
:100C700010926B026AE672E0809184020E94FD018C
:100C800009C02D853E852830310518F100E010E0BF
:100C90001D82198298014D815981B8018D819981F8
:100CA0000E94960F882309F488C000E010E030E429
:100CB0003D8380EC898381C000E010E090E89D8353
:100CC0002FEB29837AC000E010E01D8290EC99831D
:100CD00074C0F901EC5CFF4F0C94F21029E739EE77
:100CE00046E95FEBC501B4010E94460F2CEE31E5E9
:100CF0004CE850E45CC020E635EE40E85FE3C30119
:100D0000B2010E94460F29E23CE54BED50E40CC0D5
:100D10002FE832EC45ED5FEBC701B6010E94460FAC
:100D200026EF38E24CEB5FE30E94810D42C029EED2
:100D300036E241E250ECC701B6010E94460F2FE7B0
:100D40003AE84EE054E433C02EEF34ED48E050EC86
:100D5000C701B6010E94460F22EB3DE047EC53E489
:100D600026C022EB3DE94BE850ECC501B4010E94DE
:100D7000460F2FE33DEB4DE154E419C026E636E67D
:100D800046EE5FEBC501B4010E94460F28E431EE48
:100D90004AE35FE30CC020EF37EA46EC5FEBC501A6
:100DA000B4010E94460F22EB3DE94FEC5FE30E9445
:100DB000D90E8B018D83998352CFB8018D81998192
:100DC0002E960FB6F894DEBF0FBECDBFDF91CF9148
:100DD0001F910F91FF90EF90DF90CF90BF90AF9059
:100DE0009F908F907F906F905F904F903F902F904B
:100DF000089508950895CF92DF92EF92FF920F9396
:100E00001F93CF93DF936C017A018B01C0E0D0E098
:100E1000CE15DF0581F0D8016D918D01D601ED91E0
:100E2000FC910190F081E02DC6010995892B11F00C
:100E30002196EECF7E01C701DF91CF911F910F91D7
:100E4000FF90EF90DF90CF900895FC01538D448D7B
:100E5000252F30E0842F90E0821B930B541710F065
:100E6000CF96089501970895FC01918D828D981772
:100E700061F0828DDF01A80FB11D5D968C91928D7E
:100E80009F5F9F73928F90E008958FEF9FEF08957B
:100E9000FC01918D828D981731F0828DE80FF11D44
:100EA000858D90E008958FEF9FEF0895FC01918D5F
:100EB000228D892F90E0805C9F4F821B91098F7358
:100EC000992708958CEF92E00E94560721E0892B24
:100ED00009F420E0822F0895FC01848DDF01A80F22
:100EE000B11DA35ABF4F2C91848D90E001968F7352
:100EF0009927848FA689B7892C93A089B1898C9171
:100F0000837080648C93938D848D981306C00288BF
:100F1000F389E02D80818F7D80830895EF92FF9289
:100F20000F931F93CF93DF93EC0181E0888F9B8D0C
:100F30008C8D981305C0E889F989808185FD26C0CC
:100F4000F62E0B8D10E00F5F1F4F0F731127E02E51
:100F50008C8DE8120CC00FB607FCFACFE889F9892E
:100F6000808185FFF5CFCE010E946C07F1CF8B8D7C
:100F7000FE01E80FF11DE35AFF4FF0829FB7F8948E
:100F80000B8FEA89FB89808180620AC09FB7F89441
:100F9000EE89FF896083E889F989808183708064A4
:100FA00080839FBF81E090E0DF91CF911F910F91EF
:100FB000FF90EF900895CF93DF93EC01888D882305
:100FC000C9F0EA89FB89808185FD05C0A889B989B6
:100FD0008C9186FD0FC00FB607FCF5CF808185FF91
:100FE000F2CFA889B9898C9185FFEDCFCE010E94FF
:100FF0006C07E7CFDF91CF91089580E090E0892BD7
:1010000029F00E94620781110C940000089585ED7B
:101010008093BC008091BC0084FDFCCF1092D8026C
:1010200008954091C603262F30E0240F311D213250
:101030003105DCF42091D8022430C9F4FC0180E0B1
:1010400090E0861758F43091C6032191DC01AA552F
:10105000BC4FA30FB11D2C930196F3CF8091C60313
:10106000680F6093C60380E0089581E0089582E0F0
:1010700008950895E091670280916602E81730F4C0
:10108000F0E0EE56FD4F808190E008958FEF9FEFE6
:1010900008959091670280916602981750F4E92FA5
:1010A000F0E0EE56FD4F208130E09F5F90936702A5
:1010B00002C02FEF3FEFC90108958091660290E0D2
:1010C00020916702821B91090895CF92DF92EF92DF
:1010D000FF920F931F93CF93DF937C01CB018A0183
:1010E0002091D902222389F0EB016B01C40ED51E99
:1010F000CC15DD0569F06991D701ED91FC91019066
:10110000F081E02DC7010995F3CF642F0E941108EB
:10111000C801DF91CF911F910F91FF90EF90DF9069
:10112000CF900895CF93DF931F92CDB7DEB7698339
:101130002091D9022223D1F02091FB02203240F0ED
:1011400021E030E0FC013383228380E090E015C091
:101150008091DA02E82FF0E0E552FD4F998190830B
:101160008F5F8093DA028093FB0205C061E0CE01BD
:1011700001960E94110881E090E00F90DF91CF91DD
:101180000895089580E090E008950E94F8103FB718
:10119000F8948091F2039091F303A091F403B0913D
:1011A000F50326B5A89B05C02F3F19F00196A11D98
:1011B000B11D3FBFBA2FA92F982F8827820F911DED
:1011C000A11DB11DBC01CD0142E0660F771F881F34
:1011D000991F4A95D1F708951F920F920FB60F925B
:1011E00011242F933F938F939F93AF93BF9380913D
:1011F000EE039091EF03A091F003B091F1033091D1
:10120000ED0323E0230F2D3720F40196A11DB11D1E
:1012100005C026E8230F0296A11DB11D2093ED0302
:101220008093EE039093EF03A093F003B093F10348
:101230008091F2039091F303A091F403B091F50330
:101240000196A11DB11D8093F2039093F303A09327
:10125000F403B093F503BF91AF919F918F913F91AC
:101260002F910F900FBE0F901F9018951F920F9205
:101270000FB60F9211242F933F934F935F936F9369
:101280007F938F939F93AF93BF93EF93FF938CEFD5
:1012900092E00E946C07FF91EF91BF91AF919F91F7
:1012A0008F917F916F915F914F913F912F910F900F
:1012B0000FBE0F901F9018951F920F920FB60F92AE
:1012C00011242F938F939F93EF93FF93E0910C033F
:1012D000F0910D038081E0911203F091130382FDE0
:1012E00012C09081809115038F5F8F732091160338
:1012F000821751F0E0911503F0E0E450FD4F958F17
:101300008093150301C08081FF91EF919F918F9190
:101310002F910F900FBE0F901F9018951F920F9254
:101320000FB60F9211242F933F934F935F936F93B8
:101330007F938F939F93AF93BF93EF93FF9380918E
:10134000B900887F803609F49CC068F5883209F4BA
:101350005BC090F4803109F454C038F4882309F458
:10136000F6C0883009F44DC0F6C0883109F44CC08D
:10137000803209F45DC0EFC0803409F468C048F4DD
:10138000803309F455C0883309F0E5C08093D60254
:10139000D8C0803509F44FC0883509F45DC0883461
:1013A00009F0D9C0D6C0883909F4C7C0A8F4883775
:1013B00009F467C038F4883609F463C0803709F44B
:1013C00060C0C9C0883809F4B8C0803909F45FC06A
:1013D000803809F0C0C05BC0803B09F486C038F497
:1013E000803A09F466C0883A09F47FC0B4C0803CF2
:1013F00009F4A7C0883C09F4A4C0883B09F48AC05A
:10140000AAC08091B30210C09091D5028091D402FD
:10141000981770F5E091D50281E08E0F8093D50288
:10142000F0E0EC54FD4F80818093BB0085EC86C0DA
:101430008093D6028EC0E091D50281E08E0F80931A
:10144000D5028091BB00F0E0EC54FD4F8083909179
:10145000D5028091D4026EC0E091D50281E08E0F5A
:101460008093D5028091BB00F0E0EC54FD4F808367
:101470008091D70281116DC081E08093B20284EA2D
:1014800061C083E08093D8021092E803CFCF8091AF
:10149000E803803208F051C0E091E80381E08E0F4C
:1014A0008093E8038091BB00F0E0E853FC4F808319
:1014B000BDCF85EC8093BC001092D8028091E803E8
:1014C000803230F4E091E803F0E0E853FC4F108202
:1014D0006091E80370E0E091E903F091EA0388ECA1
:1014E00093E009951092E80336C084E08093D80217
:1014F0001092C7031092C603E091EB03F091EC0346
:1015000009958091C603811105C081E08093C603CF
:101510001092A603E091C70381E08E0F8093C7036A
:10152000F0E0EA55FC4F80818093BB009091C703A7
:101530008091C603981708F479CF85E88093BC00A2
:101540000AC085EC8093BC001092D80204C01092AF
:10155000D6020E940708FF91EF91BF91AF919F9132
:101560008F917F916F915F914F913F912F910F904C
:101570000FBE0F901F901895ECEFF2E013821282CD
:1015800088EE93E0A0E0B0E084839583A683B783E0
:1015900024E031E03183208325EC30E03587248757
:1015A00024EC30E03787268720EC30E0318B208B2D
:1015B00021EC30E0338B228B22EC30E0358B248B16
:1015C00026EC30E0378B268B118E128E138E148E04
:1015D000E9E9F3E01382128284839583A683B783BB
:1015E00086E191E0918380830895789484B5826048
:1015F00084BD84B5816084BD85B5826085BD85B5B7
:10160000816085BD80916E00816080936E00109234
:1016100081008091810082608093810080918100AF
:101620008160809381008091800081608093800040
:101630008091B10084608093B1008091B00081609E
:101640008093B00080917A00846080937A008091CA
:101650007A00826080937A0080917A008160809322
:101660007A0080917A00806880937A001092C1009D
:10167000E0910C03F0910D0382E08083E091080378
:10168000F09109031082E0910A03F0910B0380E1CD
:10169000808310921403E0911003F091110386E00F
:1016A0008083E0910E03F0910F038081806180833D
:1016B000E0910E03F0910F03808188608083E091B8
:1016C0000E03F0910F03808180688083E0910E0308
:1016D000F0910F0380818F7D808383E391E00E94EE
:1016E0008C02C1E0D0E0D0936902C09368021092EE
:1016F000910210926702109266021092DA02109222
:10170000FB021092D80281E08093D7021092B202BD
:1017100082E10E949A0283E10E949A028091B900BC
:101720008E7F8093B9008091B9008D7F8093B9003E
:1017300088E48093B80085E48093BC0089EF96E04C
:101740009093EC038093EB038AEF96E09093EA0387
:101750008093E90384E08093840260E084E892E06F
:101760000E9417028636944061F482E090E09093E4
:101770006902809368028DE391E00E948C0282E00E
:1017800009C0D0936902C093680289E491E00E9485
:101790008C0281E0282F30E03093690220936802A8
:1017A000813041F481E20E947A02C5E5D1E008E58A
:1017B00011E0E5C08BE080936A0281E080936B02C8
:1017C0006AE672E0809184020E94FD01EECF86E815
:1017D00091E00E94E0028EE891E00E948C0280E09D
:1017E00090E00E948E046B017C0183E991E00E94ED
:1017F000E00220E030E0A901C701B6010E94D40E4A
:1018000087FDEAC042E0C701B6010E94E2028EE80D
:1018100091E00E948C0281E090E00E948E046B01B6
:101820007C018FEA91E00E94E00220E030E0A90113
:10183000C701B6010E94D40E87FDD3C042E0C701A4
:10184000B6010E94E2028EE891E00E948C0283E0E1
:1018500090E00E948E046B017C018CEC91E00E9470
:10186000E00220E030E0A901C701B6010E94D40ED9
:1018700087FDBCC042E0C701B6010E94E2028EE8CB
:1018800091E00E948C0284E090E00E948E046B0143
:101890007C018AEE91E00E94E00220E030E0A901A4
:1018A000C701B6010E94D40E87FDA5C042E0C70162
:1018B000B6010E94E2028EE891E00E948C0285E06F
:1018C00090E00E948E046B017C0189E092E00E940E
:1018D000E00220E030E0A901C701B6010E94D40E69
:1018E00087FD8EC042E0C701B6010E94E2028EE889
:1018F00091E00E948C0286E090E00E948E046B01D1
:101900007C0186E292E00E94E00220E030E0A90142
:10191000C701B6010E94D40E87FD77C042E0C7011F
:10192000B6010E94E2028EE891E00E948C0287E0FC
:1019300090E00E948E046B017C0182E492E00E94A0
:10194000E00220E030E0A901C701B6010E94D40EF8
:1019500087FD60C042E0C701B6010E94E2028EE846
:1019600091E00E948C0268E873E180E090E00E94C0
:10197000030482E692E00E948C020E94FD071F92FF
:101980001F921F921F92DF93CF930E94FD101F930F
:101990000F930E94FD1082E090E00E948E046B0184
:1019A0007C0189E691E00E94E0028DB79EB708961F
:1019B0000FB6F8949EBF0FBE8DBF20E030E0A901A6
:1019C000C701B6010E94D40E87FD01CF42E0C701D6
:1019D000B6010E94E202FFCE86E891E00E94E0029A
:1019E00016CF86E891E00E94E0022DCF86E891E0D4
:1019F0000E94E00244CF86E891E00E94E0025BCFC3
:101A000086E891E00E94E00272CF86E891E00E94B1
:101A1000E00289CF86E891E00E94E002A0CF505812
:101A2000BB27AA270E94270D0C949A0E0E948C0EA9
:101A300038F00E94930E20F039F49F3F19F426F4F9
:101A40000C94890E0EF4E095E7FB0C94830EE92FBD
:101A50000E94AB0E58F3BA17620773078407950705
:101A600020F079F4A6F50C94CD0E0EF4E0950B2E33
:101A7000BA2FA02D0B01B90190010C01CA01A001E0
:101A80001124FF27591B99F0593F50F4503E68F13B
:101A90001A16F040A22F232F342F4427585FF3CF7C
:101AA000469537952795A795F0405395C9F77EF44D
:101AB0001F16BA0B620B730B840BBAF09150A1F096
:101AC000FF0FBB1F661F771F881FC2F70EC0BA0F1C
:101AD000621F731F841F48F4879577956795B795A4
:101AE000F7959E3F08F0B0CF9395880F08F099279F
:101AF000EE0F9795879508950E945F0E08F481E098
:101B000008950E94950D0C949A0E0E94930E58F021
:101B10000E948C0E40F029F45F3F29F00C94830E54
:101B200051110C94CE0E0C94890E0E94AB0E68F3EA
:101B30009923B1F3552391F3951B550BBB27AA2786
:101B400062177307840738F09F5F5F4F220F331FC0
:101B5000441FAA1FA9F335D00E2E3AF0E0E832D088
:101B600091505040E695001CCAF72BD0FE2F29D08B
:101B7000660F771F881FBB1F261737074807AB075D
:101B8000B0E809F0BB0B802DBF01FF2793585F4FD2
:101B90003AF09E3F510578F00C94830E0C94CE0ED3
:101BA0005F3FE4F3983ED4F3869577956795B795B4
:101BB000F7959F5FC9F7880F911D9695879597F9BF
:101BC0000895E1E0660F771F881FBB1F6217730738
:101BD0008407BA0720F0621B730B840BBA0BEE1F4D
:101BE00088F7E09508950E94B30E88F09F5798F00B
:101BF000B92F9927B751B0F0E1F0660F771F881F12
:101C0000991F1AF0BA95C9F714C0B13091F00E942B
:101C1000CD0EB1E008950C94CD0E672F782F882754
:101C2000B85F39F0B93FCCF3869577956795B39552
:101C3000D9F73EF490958095709561957F4F8F4FC1
:101C40009F4F0895E89409C097FB3EF490958095C6
:101C5000709561957F4F8F4F9F4F9923A9F0F92F72
:101C600096E9BB279395F695879577956795B795F0
:101C7000F111F8CFFAF4BB0F11F460FF1BC06F5FD6
:101C80007F4F8F4F9F4F16C0882311F096E911C0E8
:101C9000772321F09EE8872F762F05C0662371F009
:101CA00096E8862F70E060E02AF09A95660F771F1D
:101CB000881FDAF7880F9695879597F90895990FF9
:101CC0000008550FAA0BE0E8FEEF16161706E80706
:101CD000F907C0F012161306E407F50798F0621B27
:101CE000730B840B950B39F40A2661F0232B242BFC
:101CF000252B21F408950A2609F4A140A6958FEF1B
:101D0000811D811D089597F99F6780E870E060E06C
:101D100008959FEF80EC089500240A941616170684
:101D200018060906089500240A94121613061406CC
:101D300005060895092E0394000C11F4882352F02F
:101D4000BB0F40F4BF2B11F460FF04C06F5F7F4FE7
:101D50008F4F9F4F089557FD9058440F551F59F0CE
:101D60005F3F71F04795880F97FB991F61F09F3F88
:101D700079F087950895121613061406551FF2CFB1
:101D80004695F1DF08C0161617061806991FF1CF01
:101D900086957105610508940895E894BB27662728
:101DA0007727CB0197F908950E945F0E08F48FEF13
:101DB00008950E94EC0E0C949A0E0E948C0E38F03E
:101DC0000E94930E20F0952311F00C94830E0C9436
:101DD000890E11240C94CE0E0E94AB0E70F3959FC9
:101DE000C1F3950F50E0551F629FF001729FBB2712
:101DF000F00DB11D639FAA27F00DB11DAA1F649FAE
:101E00006627B00DA11D661F829F2227B00DA11D60
:101E1000621F739FB00DA11D621F839FA00D611DE6
:101E2000221F749F3327A00D611D231F849F600D07
:101E3000211D822F762F6A2F11249F5750409AF030
:101E4000F1F088234AF0EE0FFF1FBB1F661F771FBC
:101E5000881F91505040A9F79E3F510580F00C9487
:101E6000830E0C94CE0E5F3FE4F3983ED4F3869538
:101E700077956795B795F795E7959F5FC1F7FE2B27
:101E8000880F911D9695879597F90895FA01EE0FA1
:101E9000FF1F309621053105A1F16115710561F42F
:101EA0008038BFE39B0749F168949038810561F061
:101EB0008038BFEF9B0741F099234AF5FF3FE105CA
:101EC0003105210519F1E8940894E795D901AA2371
:101ED00029F4AB2FBE2FF85FD0F310C0FF5F70F472
:101EE000A695E0F7F73950F019F0FF3A38F49F77EC
:101EF0009F930DD00F9007FC9058089546F00C94D6
:101F0000890E60E070E080E89FE308954FE79F77D7
:101F10005F934F933F932F930E9446102F913F91D1
:101F20004F915F910E94D90E0C94A30F0E945F0EF7
:101F3000880B990B089529F416F00C94830E0C94D9
:101F4000CD0E0C94890E0E94B30EA8F39638A0F71C
:101F500007F80F92E8942BE33AEA48EB5FE70E9418
:101F6000EF0E0F920F920F924DB75EB70F920E9435
:101F70008E10E8E7F0E00E94D50F4F915F91EF914E
:101F8000FF91E595EE1FFF1F49F0FE57E0684427DB
:101F9000EE0F441FFA95E1F74195550B0E9408108A
:101FA0000F9007FE0C94FC0F0895DF93CF931F93BF
:101FB0000F93FF92EF92DF927B018C01689406C031
:101FC000DA2EEF010E94EC0EFE01E894A591259116
:101FD000359145915591A6F3EF010E94270DFE0121
:101FE0009701A801DA9469F7DF90EF90FF900F91C5
:101FF0001F91CF91DF9108959B01AC0160E070E0EB
:1020000080E89FE30C94810D0C94830E0C94C21015
:102010000E94B30ED8F39923C9F3940F511DA3F373
:102020009150504094F059F0882332F0660F771F9A
:10203000881F91505040C1F79E3F51052CF7880FE3
:10204000911D9695879597F908955F3FACF0983E5E
:102050009CF0BB27869577956795B79508F4B16096
:102060009395C1F7BB0F58F711F460FFE8CF6F5F8E
:102070007F4F8F4F9F4FE3CF0C94CE0E16F00C94F2
:10208000C2100C94890E68940C94830E0E94B30EB7
:10209000A8F39923C1F3AEF3DF93CF931F930F936C
:1020A000FF92C92FDD2788232AF02197660F771F1B
:1020B000881FDAF720E030E040E85FEB9FE38839E3
:1020C00020F0803E38F021968F770E94100DE0EAD4
:1020D000F0E004C00E94100DEDECF0E00E94D50F7E
:1020E0008B01BE01EC01FB2E6F5771097595771FAF
:1020F000880B990B0E94240E28E132E741E35FE34D
:102100000E94EC0EAF2D9801AE01FF900F911F9130
:10211000CF91DF910E94270D0C949A0EFA01DC01F9
:10212000AA0FBB1F9B01AC01BF5728F422273327FE
:102130004427507820C0B75190F4AB2F0024469527
:1021400037952795011CA395D2F3002071F0220F3B
:10215000331F441FB395DAF30ED00C940F0D61308A
:102160007105A0E88A07B94630F49B01AC016627E7
:10217000772788279078309621F020833183428317
:10218000538308959F3F31F0915020F487957795C0
:102190006795B795880F911D9695879597F908953E
:1021A000A1E21A2EAA1BBB1BFD010DC0AA1FBB1F5B
:1021B000EE1FFF1FA217B307E407F50720F0A21BCD
:1021C000B30BE40BF50B661F771F881F991F1A943A
:1021D00069F760957095809590959B01AC01BD0164
:1021E000CF010895EE0FFF1F0590F491E02D0994A3
:1021F00081E090E0F8940C94DB13A0E0B0E0E3E021
:10220000F1E10C94B413AE014B5F5F4FFA016191A1
:102210007191AF018091F8039091F9030E9413111D
:10222000E2E00C94D013ABE0B0E0E9E1F1E10C9412
:10223000A4136C017B018A01FC0117821682838141
:1022400081FFCCC1CE0101963C01F6019381F701DB
:1022500093FD859193FF81917F01882309F4BAC191
:10226000853239F493FD859193FF81917F01853209
:1022700029F4B60190E00E940A13E7CF912C212C9B
:10228000312CFFE1F315D8F08B3279F038F480323D
:1022900079F08332A1F4232D20611DC08D3261F0CD
:1022A000803369F4232D216016C0832D8260382E7F
:1022B000E32DE4603E2E2AC0F32DF8601DC037FCEC
:1022C0002DC020ED280F2A3040F08E32B9F436FCB4
:1022D00081C1232D2064322E19C036FE06C08AE04B
:1022E000989E200D1124922E11C0EAE02E9E200D02
:1022F0001124222EF32DF0623F2E08C08C3621F4DB
:10230000832D8068382E02C0883641F4F70193FD92
:10231000859193FF81917F018111B3CF982F9F7D8C
:102320009554933028F40C5F1F4F9FE399830DC0A1
:10233000833631F0833771F0833509F059C021C0FD
:10234000F801808189830E5F1F4F88248394912C2C
:10235000530113C02801F2E04F0E511CF801A08078
:10236000B18036FE03C0692D70E002C06FEF7FEFD1
:10237000C5010E94FF124C018201F32DFF773F2E11
:1023800016C0280122E0420E511CF801A080B18045
:1023900036FE03C0692D70E002C06FEF7FEFC5010C
:1023A0000E94F4124C01F32DF0683F2E820133FCA1
:1023B0001BC0822D90E088169906B0F4B60180E229
:1023C00090E00E940A132A94F4CFF50137FC85911E
:1023D00037FE81915F01B60190E00E940A1321103F
:1023E0002A9421E0821A91088114910471F7E8C0BF
:1023F000843611F0893641F5F80137FE07C0608157
:102400007181828193810C5F1F4F08C0608171814F
:10241000072E000C880B990B0E5F1F4FF32DFF76D4
:102420003F2E97FF09C090958095709561957F4FDD
:102430008F4F9F4FF0683F2E2AE030E0A3010E94AB
:102440004613882E861845C0853731F4232D2F7EFC
:10245000B22E2AE030E025C0932D997FB92E8F3619
:10246000C1F018F4883579F0B5C0803719F0883795
:1024700021F0B0C0E92FE061BE2EB4FE0DC0FB2DEF
:10248000F460BF2E09C034FE0AC0292F2660B22E88
:1024900006C028E030E005C020E130E002C020E1C5
:1024A00032E0F801B7FE07C06081718182819381BB
:1024B0000C5F1F4F06C06081718180E090E00E5F6D
:1024C0001F4FA3010E944613882E8618FB2DFF770D
:1024D0003F2E36FE0DC0232D2E7FA22E891458F4D8
:1024E00034FE0BC032FC09C0832D8E7EA82E05C0A1
:1024F000B82CA32C03C0B82C01C0B92CA4FE0FC06B
:10250000FE01E80DF11D8081803321F49A2D997E22
:10251000A92E09C0A2FE06C0B394B39404C08A2DAC
:10252000867809F0B394A3FC11C0A0FE06C0B214D3
:1025300088F4280C922C9B180EC0B21460F4B601DB
:1025400080E290E00E940A13B394F7CFB21418F41B
:102550002B1802C0982C212CA4FE10C0B60180E3D9
:1025600090E00E940A13A2FE17C0A1FC03C088E7F6
:1025700090E002C088E590E0B6010CC08A2D867814
:1025800059F0A1FE02C08BE201C080E2A7FC8DE2FF
:10259000B60190E00E940A13891438F4B60180E372
:1025A00090E00E940A139A94F7CF8A94F301E80D01
:1025B000F11D8081B60190E00E940A138110F5CFD1
:1025C000222009F442CEB60180E290E00E940A1374
:1025D0002A94F6CFF6018681978102C08FEF9FEF94
:1025E0002B96E2E10C94C013FC0105906150704001
:1025F0000110D8F7809590958E0F9F1F0895FC01CC
:102600006150704001900110D8F7809590958E0F21
:102610009F1F08950F931F93CF93DF93FB01238197
:1026200021FD03C08FEF9FEF2CC022FF16C0468113
:102630005781248135814217530744F4A081B18129
:102640009D012F5F3F4F318320838C9326813781FB
:102650002F5F3F4F3783268314C08B01EC01FB01B2
:102660000084F185E02D0995892BE1F6D8011696B5
:102670008D919C911797019617969C938E93169720
:10268000CE01DF91CF911F910F910895FA01AA27F2
:10269000283051F1203181F1E8946F936E7F6E5FA5
:1026A0007F4F8F4F9F4FAF4FB1E03ED0B4E03CD053
:1026B000670F781F891F9A1FA11D680F791F8A1F36
:1026C000911DA11D6A0F711D811D911DA11D20D09D
:1026D00009F468943F912AE0269F11243019305D57
:1026E0003193DEF6CF010895462F4770405D419348
:1026F000B3E00FD0C9F7F6CF462F4F70405D4A3395
:1027000018F0495D31FD4052419302D0A9F7EACF5C
:10271000B4E0A6959795879577956795BA95C9F78B
:1027200000976105710508959B01AC010A2E06947E
:102730005795479537952795BA95C9F7620F731F37
:10274000841F951FA01D08952F923F924F925F9274
:102750006F927F928F929F92AF92BF92CF92DF92B1
:10276000EF92FF920F931F93CF93DF93CDB7DEB716
:10277000CA1BDB0B0FB6F894DEBF0FBECDBF0994AA
:102780002A88398848885F846E847D848C849B8401
:10279000AA84B984C884DF80EE80FD800C811B810F
:1027A000AA81B981CE0FD11D0FB6F894DEBF0FBE3E
:0A27B000CDBFED010895F894FFCFAE
:1027BA00000000008E07FB062507DB0756073407D3
:1027CA0048070000000092086508C20839085D0839
:1027DA0049083A080D0A006E616E00696E66006F5C
:1027EA00766600706F776572206F6E21007665726B
:1027FA0073696F6E203D20320076657273696F6E61
:10280A00203D2031002566006A65207375697320B2
:10281A00756E207072696E740054686520636F6EFD
:10282A0063656E74726174696F6E206F66204E48BC
:10283A00332069732000696E76616C6964002070C8
:10284A00706D0054686520636F6E63656E747261A3
:10285A0074696F6E206F6620434F2069732000549D
:10286A00686520636F6E63656E74726174696F6EFA
:10287A00206F66204E4F322069732000546865200D
:10288A00636F6E63656E74726174696F6E206F66D2
:10289A002043334838206973200054686520636FE9
:1028AA006E63656E74726174696F6E206F66204321
:1028BA0034483130206973200054686520636F6E94
:1028CA0063656E74726174696F6E206F6620434827
:1028DA0034206973200054686520636F6E63656EE7
:1028EA0074726174696F6E206F6620483220697352
:1028FA00200054686520636F6E63656E747261743C
:10290A00696F6E206F6620433248354F48206973DD
:06291A0020002E2E2E000D
:00000001FF
